:100000000C9462000C948A000C948A000C948A0070
:100010000C948A000C948A000C948A000C948A0038
:100020000C948A000C948A000C948A000C948A0028
:100030000C948A000C948A000C948A000C948A0018
:100040000C9407090C948A000C94D5060C940707AD
:100050000C948A000C948A000C948A000C948A00F8
:100060000C948A000C948A00000000080002010031
:100070000003040700000000000000000102040863
:100080001020408001020408102001020408102002
:10009000040404040404040402020202020203032E
:1000A00003030303000000002300260029000000D2
:1000B0000000250028002B0000000000240027007D
:1000C0002A00370711241FBECFEFD8E0DEBFCDBF17
:1000D00011E0A0E0B1E0E8E5F5E102C005900D9285
:1000E000A632B107D9F722E0A6E2B1E001C01D9225
:1000F000AA32B207E1F710E0C2E6D0E004C02197CF
:10010000FE010E94A40AC136D107C9F70E94650703
:100110000C94AA0A0C9400004F925F926F927F9207
:100120008F929F92AF92BF92CF92DF92EF92FF9207
:10013000CF93DF93CDB7DEB72C970FB6F894DEBF21
:100140000FBECDBF40907401509075016090760154
:1001500070907701A0E7B1E04D925D926D927C9234
:1001600013978091780190917901A0917A01B091D3
:100170007B018093740190937501A0937601B093F5
:100180007701C0907C01D0907D01E0907E01F090DD
:100190007F01C0927801D0927901E0927A01F092C9
:1001A0007B018091800190918101A0918201B091A9
:1001B000830180937C0190937D01A0937E01B09395
:1001C0007F01609158017091590180915A0190917D
:1001D0005B010E94570426E63EEE4DE751E40E9483
:1001E000A9039B01AC01609380017093810180930E
:1001F0008201909383018090600190906101A090B2
:100200006201B0906301ECE5F1E080829182A2820C
:10021000B3828091640190916501A0916601B091D3
:10022000670189839A83AB83BC8380936001909339
:100230006101A0936201B093630180916801909184
:100240006901A0916A01B0916B018D839E83AF8398
:10025000B8878093640190936501A0936601B09381
:10026000670180916C0190916D01A0916E01B09138
:100270006F0189879A87AB87BC87809368019093C9
:100280006901A0936A01B0936B01C301B2010E949E
:100290003D032B013C01A7019601C701B6010E9455
:1002A0003D039B01AC01C301B2010E943C036B0101
:1002B0007C012EEF32EC4CED5EEBC501B4010E94E7
:1002C00033059B01AC01C701B6010E943D036B01E0
:1002D0007C0128EF3DE941E050E469817A818B811E
:1002E0009C810E9433059B01AC01C701B6010E94AD
:1002F0003D036B017C012BEE39EB4FE650EC6D8139
:100300007E818F8198850E9433059B01AC01C701D6
:10031000B6010E943D036B017C0128EE3FEA49E4EF
:1003200050E469857A858B859C850E9433059B0105
:10033000AC01C701B6010E943D0360936C0170934C
:100340006D0180936E0190936F010E941B046B01FD
:100350007C01FF0CCC08DC2C76016093500170937B
:1003600051018093520190935301C0925401C09265
:100370005501C0925601C092570120915001309111
:10038000510140915201509153016091540170917B
:10039000550180915601909157012C960FB6F89413
:1003A000DEBF0FBECDBFDF91CF91FF90EF90DF900A
:1003B000CF90BF90AF909F908F907F906F905F9005
:1003C0004F9008950F931F93FC0180899189A28912
:1003D000B3890081118122813381BC01CD01601B71
:1003E000710B820B930B0E94590420E030E04AE726
:1003F00055E40E94A90320E030E040E752E40E9467
:1004000033050E941B04CB011F910F9108958F9219
:100410009F92AF92BF92CF92DF92EF92FF920F9393
:100420001F93CF93DF9369017A018B01D82FC92FD6
:100430000E9451094B015C019601A701B8018D2F63
:100440009C2FA0E00E94980AB1F00E94980A94F1B3
:1004500020913C0130913D0140913E0150913F017E
:10046000609140017091410180914201909143015E
:100470000E94980AFCF480914A0190914B010196E8
:1004800090934B0180934A0180913A0190913B01F6
:100490009C012F5F3F4F30933B0120933A01880F1F
:1004A000991F880F991FFC01EA5DFE4F808291829F
:1004B000A282B38280913A0190913B01059709F0A5
:1004C00041C086E291E00E94E201092E000CAA0BD5
:1004D000BB0B8093460190934701A0934801B093D2
:1004E00049018091460190914701A0914801B09146
:1004F00049014E97A105B1058CF4809100019091BE
:100500000101A0910201B0910301809346019093F3
:100510004701A0934801B093490110C08091460162
:1005200090914701A0914801B09149018093000149
:1005300090930101A0930201B093030110923B013B
:1005400010923A01C0923C01D0923D01E0923E01EE
:10055000F0923F010093400110934101D09342017A
:10056000C0934301DF91CF911F910F91FF90EF90C6
:10057000DF90CF90BF90AF909F908F90089526E02E
:1005800040E052EC61E070E084E891E00E94750682
:1005900060E084E00E94DE0984E00E941A0A892B50
:1005A00039F081E090E090934501809344010895F3
:1005B00010924501109244010895CF92DF92EF927C
:1005C000FF920F931F93CF93DF930E9451096B010A
:1005D0007C0180914C0190914D01A0914E01B09110
:1005E0004F01A7019601281B390B4A0B5B0B2A30E0
:1005F000310541055105B8F181E10E949809092EA4
:10060000000CAA0BBB0B8093580190935901A09347
:100610005A01B0935B01C0924C01D0924D01E0921F
:100620004E01F0924F010E948C0069017A018B010A
:10063000D82FC92F0E9407029601A701B8018D2F5C
:100640009C2F0E945104AB01BC0122E030E084E801
:1006500091E0DF91CF911F910F91FF90EF90DF908C
:10066000CF900C94F508DF91CF911F910F91FF90DF
:10067000EF90DF90CF9008955058BB27AA270E9493
:1006800054030C94F9040E94EB0438F00E94F20425
:1006900020F039F49F3F19F426F40C94D8040EF49A
:1006A000E095E7FB0C94D204E92F0E940A0558F369
:1006B000BA17620773078407950720F079F4A6F547
:1006C0000C942C050EF4E0950B2EBA2FA02D0B01E7
:1006D000B90190010C01CA01A0011124FF27591B87
:1006E00099F0593F50F4503E68F11A16F040A22F8D
:1006F000232F342F4427585FF3CF469537952795FE
:10070000A795F0405395C9F77EF41F16BA0B620BFC
:10071000730B840BBAF09150A1F0FF0FBB1F661F43
:10072000771F881FC2F70EC0BA0F621F731F841F86
:1007300048F4879577956795B795F7959E3F08F0AC
:10074000B0CF9395880F08F09927EE0F979587956E
:1007500008950E94BD030C94F9040E94F20458F01D
:100760000E94EB0440F029F45F3F29F00C94D2047E
:1007700051110C942D050C94D8040E940A0568F3BD
:100780009923B1F3552391F3951B550BBB27AA274A
:1007900062177307840738F09F5F5F4F220F331F84
:1007A000441FAA1FA9F335D00E2E3AF0E0E832D04C
:1007B00091505040E695001CCAF72BD0FE2F29D04F
:1007C000660F771F881FBB1F261737074807AB0721
:1007D000B0E809F0BB0B802DBF01FF2793585F4F96
:1007E0003AF09E3F510578F00C94D2040C942D05FC
:1007F0005F3FE4F3983ED4F3869577956795B79578
:10080000F7959F5FC9F7880F911D9695879597F982
:100810000895E1E0660F771F881FBB1F62177307FB
:100820008407BA0720F0621B730B840BBA0BEE1F10
:1008300088F7E09508950E9422046894B1110C9401
:100840002D0508950E94120588F09F5798F0B92F42
:100850009927B751B0F0E1F0660F771F881F991FF5
:100860001AF0BA95C9F714C0B13091F00E942C0566
:10087000B1E008950C942C05672F782F8827B85F76
:1008800039F0B93FCCF3869577956795B395D9F74D
:100890003EF490958095709561957F4F8F4F9F4F57
:1008A000089597FB16F40E94DB040C949504E894D9
:1008B00009C097FB3EF490958095709561957F4FA8
:1008C0008F4F9F4F9923A9F0F92F96E9BB27939556
:1008D000F695879577956795B795F111F8CFFAF466
:1008E000BB0F11F460FF1BC06F5F7F4F8F4F9F4F97
:1008F00016C0882311F096E911C0772321F09EE8F5
:10090000872F762F05C0662371F096E8862F70E05A
:1009100060E02AF09A95660F771F881FDAF7880F34
:100920009695879597F90895E894F92F96EBFF230C
:1009300081F0121613061406440B9395F6958795CD
:100940007795679557954040FF23B9F71BC09927C6
:100950000895882351F49850D2F7872B762F652F6E
:10096000542F432F322F20E0B1F312161306140632
:10097000440B88233AF09A95440F551F661F771F42
:10098000881FCAF755234AF4440F551F11F460FF1E
:1009900004C06F5F7F4F8F4F9F4F880F969587954D
:1009A00097F9089597F99F6780E870E060E00895EF
:1009B0009FEF80EC08959095809570956095509587
:1009C0004095309521953F4F4F4F5F4F6F4F7F4F71
:1009D0008F4F9F4F089500240A9416161706180685
:1009E0000906089500240A94121613061406050633
:1009F0000895092E0394000C11F4882352F0BB0FC4
:100A000040F4BF2B11F460FF04C06F5F7F4F8F4F26
:100A10009F4F089557FD9058440F551F59F05F3F61
:100A200071F04795880F97FB991F61F09F3F79F010
:100A300087950895121613061406551FF2CF469592
:100A4000F1DF08C0161617061806991FF1CF869514
:100A50007105610508940895E894BB2766277727F8
:100A6000CB0197F908950E9446050C94F9040E9461
:100A7000EB0438F00E94F20420F0952311F00C945E
:100A8000D2040C94D80411240C942D050E940A055C
:100A900070F3959FC1F3950F50E0551F629FF001D1
:100AA000729FBB27F00DB11D639FAA27F00DB11DEA
:100AB000AA1F649F6627B00DA11D661F829F222773
:100AC000B00DA11D621F739FB00DA11D621F839FFA
:100AD000A00D611D221F749F3327A00D611D231FD0
:100AE000849F600D211D822F762F6A2F11249F571E
:100AF00050409AF0F1F088234AF0EE0FFF1FBB1F21
:100B0000661F771F881F91505040A9F79E3F5105DF
:100B100080F00C94D2040C942D055F3FE4F3983ED2
:100B2000D4F3869577956795B795F795E7959F5F89
:100B3000C1F7FE2B880F911D9695879597F908951B
:100B4000FC01918D228D892F90E0805C9F4F821B4C
:100B500091098F7399270895FC01918D828D9817C3
:100B600031F0828DE80FF11D858D90E008958FEFB3
:100B70009FEF0895FC01918D828D981761F0828D11
:100B8000DF01A80FB11D5D968C91928D9F5F9F73C1
:100B9000928F90E008958FEF9FEF0895FC01538DA1
:100BA000448D252F30E0842F90E0821B930B541747
:100BB00010F0CF960895019708958DE297E0892B64
:100BC00049F080E090E0892B29F00E942D078111E7
:100BD0000C9400000895FC01848DDF01A80FB11D65
:100BE000A35ABF4F2C91848D90E001968F73992763
:100BF000848FA689B7892C93A089B1898C91806450
:100C00008C93938D848D981306C00288F389E02D10
:100C100080818F7D80830895EF92FF920F931F93C1
:100C2000CF93DF93EC0181E0888F9B8D8C8D98139F
:100C300005C0E889F989808185FD24C0F62E0B8DD9
:100C400010E00F5F1F4F0F731127E02E8C8DE812FD
:100C50000CC00FB607FCFACFE889F989808185FFBF
:100C6000F5CFCE010E94EB05F1CF8B8DFE01E80F91
:100C7000F11DE35AFF4FF0820B8FEA89FB898081D7
:100C8000806207C0EE89FF896083E889F9898081E5
:100C90008064808381E090E0DF91CF911F910F917C
:100CA000FF90EF900895CF93DF93EC01888D882318
:100CB000C9F0EA89FB89808185FD05C0A889B989C9
:100CC0008C9186FD0FC00FB607FCF5CF808185FFA4
:100CD000F2CFA889B9898C9185FFEDCFCE010E9412
:100CE000EB05E7CFDF91CF910895CF92DF92EF929E
:100CF000FF921F93CF93DF93EC016A017B01122FC8
:100D000060E874E88EE190E0A70196010E94760AFF
:100D1000DA01C9010197A109B109B695A79597957F
:100D200087959C01E889F98982E08083211580E11B
:100D30003807A8F0E889F989108260E472E48FE04E
:100D400090E0A70196010E94760ADA01C901019795
:100D5000A109B109B695A795979587959C01EC8552
:100D6000FD853083EE85FF852083188EEC89FD8913
:100D70001083EA89FB89808180618083EA89FB890D
:100D8000808188608083EA89FB8980818068808394
:100D9000EA89FB8980818F7D8083DF91CF911F91CC
:100DA000FF90EF90DF90CF9008951F920F920FB6B3
:100DB0000F9211242F938F939F93EF93FF93E091C2
:100DC0009401F09195018081E0919A01F0919B014D
:100DD00082FD12C0908180919D018F5F8F73209161
:100DE0009E01821751F0E0919D01F0E0EC57FE4F1B
:100DF000958F80939D0101C08081FF91EF919F911C
:100E00008F912F910F900FBE0F901F9018951F92EA
:100E10000F920FB60F9211242F933F934F935F932E
:100E20006F937F938F939F93AF93BF93EF93FF93B2
:100E300084E891E00E94EB05FF91EF91BF91AF91A3
:100E40009F918F917F916F915F914F913F912F91E2
:100E50000F900FBE0F901F90189584E891E00E94AC
:100E6000A00521E0892B09F420E0822F0895E4E811
:100E7000F1E01382128288EE93E0A0E0B0E0848378
:100E80009583A683B78389E091E09183808385EC85
:100E900090E09587848784EC90E09787868780EC44
:100EA00090E0918B808B81EC90E0938B828B82EC35
:100EB00090E0958B848B86EC90E0978B868B118EDF
:100EC000128E138E148E089508950E945D090E945B
:100ED00064070E94BF02CDEDD5E00E94DD0220979D
:100EE000E1F30E94DD05F9CFCF92DF92EF92FF92FE
:100EF0000F931F93CF93DF936C017A018B01C0E0B6
:100F0000D0E0CE15DF0581F0D8016D918D01D601BD
:100F1000ED91FC910190F081E02DC6010995892B9E
:100F200011F02196EECF7E01C701DF91CF911F9185
:100F30000F91FF90EF90DF90CF90089561157105AC
:100F400079F0FB0101900020E9F73197AF01461BD2
:100F5000570BDC01ED91FC910280F381E02D0994A7
:100F600080E090E00895DC01ED91FC910190F0812A
:100F7000E02D099467E171E00C949E078F929F9297
:100F8000AF92BF92EF92FF920F931F93CF93DF9395
:100F9000CDB7DEB7A1970FB6F894DEBF0FBECDBFB9
:100FA0007C01FA01CB0119A2223008F42AE08E015B
:100FB0000F5D1F4F822E912CA12CB12CBF01A501DA
:100FC00094010E94760AF901CA01015011096A30A0
:100FD00010F4605D01C0695CD8016C93232B242B55
:100FE000252B61F7B801C7010E949E07A1960FB695
:100FF000F894DEBF0FBECDBFDF91CF911F910F914F
:10100000FF90EF90BF90AF909F908F900895211523
:10101000310541F4DC01ED91FC910190F081E02D6E
:10102000642F09940C94BE079A01AB0160E070E054
:101030000C9407087F928F929F92AF92BF92CF92AB
:10104000DF92EF92FF920F931F93CF93DF938C0168
:101050006A017B01722E9A01AB01C701B6010E94A1
:10106000710A882319F06AE171E027C0460157012F
:10107000E894B7F82FEF3FEF4FE75FE7C501B40102
:101080000E94710A81110DC02FEF3FEF4FE75FE71C
:10109000C501B4010E94430A18161CF46EE171E008
:1010A0000CC02FEF3FEF4FE75FE4C701B6010E948E
:1010B0006C0A181694F462E271E0C801DF91CF91D6
:1010C0001F910F91FF90EF90DF90CF90BF90AF9066
:1010D0009F908F907F900C949E072FEF3FEF4FE7EC
:1010E0005FECC701B6010E94430A87FDE4CF20E010
:1010F00030E0A901C701B6010E94430A87FF0AC078
:101100006DE2C8010E94B307EC01F7FAF094F7F81A
:10111000F09402C0C0E0D0E0B12C60E070E080E06C
:101120009FE37B1441F020E030E040E251E40E9474
:10113000A903B394F6CFA70196010E943D036B016A
:101140007C010E9422044B015C012AE0AB01BC013E
:10115000C8010E94BE07C80FD91F7720B9F1C50189
:10116000B4010E9457049B01AC01C701B6010E9463
:101170003C036B017C016EE2C8010E94B307C80FFB
:10118000D91F20E030E040E251E4C701B6010E94DF
:1011900033054B015C010E9422046B017C014AE093
:1011A00050E0C8010E941408C80FD91FB60180E0A2
:1011B00090E00E9457049B01AC01C501B4010E945C
:1011C0003C036B017C017A947110DBCFCE01DF917F
:1011D000CF911F910F91FF90EF90DF90CF90BF9034
:1011E000AF909F908F907F9008950F931F93CF9310
:1011F000DF93EC010E941A088C01CE010E94BA070D
:10120000800F911FDF91CF911F910F9108951F9231
:101210000F920FB60F9211242F933F938F939F93AA
:10122000AF93BF938091220290912302A091240258
:10123000B09125023091210226E0230F2D3720F4B2
:101240000296A11DB11D05C029E8230F0396A11D1B
:10125000B11D209321028093220290932302A09338
:101260002402B09325028091260290912702A0913A
:101270002802B09129020196A11DB11D809326027A
:1012800090932702A0932802B0932902BF91AF91B7
:101290009F918F913F912F910F900FBE0F901F90B4
:1012A00018952FB7F89460912202709123028091D3
:1012B0002402909125022FBF0895789484B582600E
:1012C00084BD84B5816084BD85B5826085BD85B5EA
:1012D000816085BDEEE6F0E0808181608083E1E899
:1012E000F0E01082808182608083808181608083D1
:1012F000E0E8F0E0808181608083E1EBF0E08081D4
:1013000084608083E0EBF0E0808181608083EAE7A5
:10131000F0E080818460808380818260808380812E
:101320008E7F80838081806880831092C1000895C1
:101330008E3008F08E502091040190E4299F900196
:1013400011248770822B80937C0080917A008064C6
:1013500080937A0080917A0086FDFCCF809178009E
:101360002091790090E0922B0895833081F028F449
:10137000813099F08230A1F008958730A9F088304B
:10138000B9F08430D1F4809180008F7D03C08091CA
:1013900080008F7780938000089584B58F7702C096
:1013A00084B58F7D84BD08958091B0008F7703C090
:1013B0008091B0008F7D8093B0000895CF93DF932C
:1013C00090E0FC01E458FF4F2491FC01E057FF4FEF
:1013D0008491882361F190E0880F991FFC01E85403
:1013E000FF4FC591D491FC01E255FF4FA591B491F7
:1013F000611109C09FB7F894888120958223888362
:10140000EC912E230BC0623061F49FB7F894888171
:10141000322F309583238883EC912E2B2C939FBF02
:1014200006C08FB7F894E8812E2B28838FBFDF91F9
:10143000CF910895CF93DF93282F30E0F901E85939
:10144000FF4F8491F901E458FF4FD491F901E0571F
:10145000FF4FC491CC2391F081110E94B509EC2F6C
:10146000F0E0EE0FFF1FEC55FF4FA591B491EC910A
:10147000ED2381E090E021F480E002C080E090E084
:10148000DF91CF9108950E94480A08F481E0089501
:10149000990F0008550FAA0BE0E8FEEF1616170685
:1014A000E807F907C0F012161306E407F50798F0ED
:1014B000621B730B840B950B39F40A2661F0232B06
:1014C000242B252B21F408950A2609F4A140A69582
:1014D0008FEF811D811D08950E94480A08F48FEF47
:1014E00008950E94480A880B990B0895A1E21A2ECC
:1014F000AA1BBB1BFD010DC0AA1FBB1FEE1FFF1FB8
:10150000A217B307E407F50720F0A21BB30BE40B07
:10151000F50B661F771F881F991F1A9469F760954E
:101520007095809590959B01AC01BD01CF01089508
:101530000024A7FD00942A173005400550056005DA
:101540007005800590050895EE0FFF1F0590F4913A
:08155000E02D0994F894FFCF8F
:101558001E00000001000000000C067407CE0553B1
:1015680006A005BA05AC050D0A006E616E00696E2D
:0615780066006F766600BC
:00000001FF
